:020000040000fa
:080000000002040000000000f2
:020000040000fa
:0400080038030000b9
:020000040000fa
:04000c005603000097
:020000040000fa
:0400100022030000c7
:020000040000fa
:040014005203000093
:020000040000fa
:040018004e03000093
:020000040000fa
:04001c0022030000bb
:020000040000fa
:0400200022030000b7
:020000040000fa
:0400240022030000b3
:020000040000fa
:0400280022030000af
:020000040000fa
:04002c0022030000ab
:020000040000fa
:0400300022030000a7
:020000040000fa
:040034005a0300006b
:020000040000fa
:0400380002030000bf
:020000040000fa
:04003c00220300009b
:020000040000fa
:040040002203000097
:020000040000fa
:040044006c03000049
:020000040000fa
:04004800220300008f
:020000040000fa
:04004c00220300008b
:020000040000fa
:040050002203000087
:020000040000fa
:04005400ae030000f7
:020000040000fa
:04005800960300000b
:020000040000fa
:04005c00220300007b
:020000040000fa
:040060000a0300008f
:020000040000fa
:040064002203000073
:020000040000fa
:04006800220300006f
:020000040000fa
:04006c00200400006c
:020000040000fa
:040070002203000067
:020000040000fa
:040074002203000063
:020000040000fa
:04007800220300005f
:020000040000fa
:04007c00220300005b
:020000040000fa
:040080002203000057
:020000040000fa
:040084002203000053
:020000040000fa
:04008800120300005f
:020000040000fa
:04008c00220300004b
:020000040000fa
:040090002203000047
:020000040000fa
:040094002203000043
:020000040000fa
:04009800220300003f
:020000040000fa
:04009c00220300003b
:020000040000fa
:0400a00088060000ce
:020000040000fa
:0400a40070060000e2
:020000040000fa
:0400a800220300002f
:020000040000fa
:0400ac00220300002b
:020000040000fa
:0400b0002203000027
:020000040000fa
:0400b400e80300005d
:020000040000fa
:0400b8001a03000027
:020000040000fa
:0400bc00220300001b
:020000040000fa
:0400c0002203000017
:020000040000fa
:0400c4002203000013
:020000040000fa
:0400c800220300000f
:020000040000fa
:0400cc00220300000b
:020000040000fa
:0400d0002203000007
:020000040000fa
:0400d4002203000003
:020000040000fa
:0400d80022030000ff
:020000040000fa
:0400dc0022030000fb
:020000040000fa
:0400e00022030000f7
:020000040000fa
:0400e40022030000f3
:020000040000fa
:0400e80022030000ef
:020000040000fa
:0400ec0022030000eb
:020000040000fa
:0400f00022030000e7
:020000040000fa
:0400f40022030000e3
:020000040000fa
:0400f80022030000df
:020000040000fa
:0400fc0022030000db
:020000040000fa
:0401000022030000d6
:020000040000fa
:0401040022030000d2
:020000040000fa
:0401080022030000ce
:020000040000fa
:04010c0022030000ca
:020000040000fa
:0401100022030000c6
:020000040000fa
:0401140022030000c2
:020000040000fa
:0401180022030000be
:020000040000fa
:04011c0022030000ba
:020000040000fa
:0401200022030000b6
:020000040000fa
:0401240022030000b2
:020000040000fa
:0401280022030000ae
:020000040000fa
:04012c00d0030000fc
:020000040000fa
:0401300022030000a6
:020000040000fa
:0401340022030000a2
:020000040000fa
:04013800220300009e
:020000040000fa
:04013c00220300009a
:020000040000fa
:040140002203000096
:020000040000fa
:040144002203000092
:020000040000fa
:04014800220300008e
:020000040000fa
:04014c00220300008a
:020000040000fa
:040150002203000086
:020000040000fa
:040154002203000082
:020000040000fa
:04015800220300007e
:020000040000fa
:04015c00220300007a
:020000040000fa
:040160002203000076
:020000040000fa
:040164002203000072
:020000040000fa
:04016800220300006e
:020000040000fa
:04016c00220300006a
:020000040000fa
:040170002203000066
:020000040000fa
:040174002203000062
:020000040000fa
:04017800220300005e
:020000040000fa
:04017c00220300005a
:020000040000fa
:040180002203000056
:020000040000fa
:040184002203000052
:020000040000fa
:04018800220300004e
:020000040000fa
:04018c00220300004a
:020000040000fa
:040190002203000046
:020000040000fa
:040194002203000042
:020000040000fa
:04019800220300003e
:020000040000fa
:04019c00220300003a
:020000040000fa
:0401a0002203000036
:020000040000fa
:0401a4002203000032
:020000040000fa
:0401a800220300002e
:020000040000fa
:0401ac00220300002a
:020000040000fa
:0401b0002203000026
:020000040000fa
:0401b4002203000022
:020000040000fa
:0401b800220300001e
:020000040000fa
:0401bc00220300001a
:020000040000fa
:0401c0002203000016
:020000040000fa
:0401c4002203000012
:020000040000fa
:0401c800220300000e
:020000040000fa
:0401cc00220300000a
:020000040000fa
:0401d0002203000006
:020000040000fa
:0401d4002203000002
:020000040000fa
:0401d80022030000fe
:020000040000fa
:0401dc0022030000fa
:020000040000fa
:0401e00022030000f6
:020000040000fa
:0401e40022030000f2
:020000040000fa
:0401e80022030000ee
:020000040000fa
:0401ec0022030000ea
:020000040000fa
:0401f00022030000e6
:020000040000fa
:0401f40022030000e2
:020000040000fa
:0401f80022030000de
:020000040000fa
:0401fc0022030000da
:020000040000fa
:0402000022030000d5
:020000040000fa
:0402040022030000d1
:020000040000fa
:0402080022030000cd
:020000040000fa
:04020c0022030000c9
:020000040000fa
:0402100022030000c5
:020000040000fa
:0402140022030000c1
:020000040000fa
:0402180022030000bd
:020000040000fa
:04021c0022030000b9
:020000040000fa
:0402200022030000b5
:020000040000fa
:0402240022030000b1
:020000040000fa
:0402280022030000ad
:020000040000fa
:04022c0022030000a9
:020000040000fa
:0402300022030000a5
:020000040000fa
:0402340022030000a1
:020000040000fa
:04023800220300009d
:020000040000fa
:04023c002203000099
:020000040000fa
:040240002203000095
:020000040000fa
:040244002203000091
:020000040000fa
:04024800220300008d
:020000040000fa
:04024c002203000089
:020000040000fa
:040250002203000085
:020000040000fa
:040254002203000081
:020000040000fa
:04025800220300007d
:020000040000fa
:04025c002203000079
:020000040000fa
:040260002203000075
:020000040000fa
:040264002203000071
:020000040000fa
:04026800220300006d
:020000040000fa
:04026c002203000069
:020000040000fa
:040270002203000065
:020000040000fa
:040274002203000061
:020000040000fa
:04027800220300005d
:020000040000fa
:04027c002203000059
:020000040000fa
:040280002203000055
:020000040000fa
:040284002203000051
:020000040000fa
:04028800220300004d
:020000040000fa
:04028c002203000049
:020000040000fa
:040290002203000045
:020000040000fa
:040294002203000041
:020000040000fa
:04029800220300003d
:020000040000fa
:04029c002203000039
:020000040000fa
:0402a0002203000035
:020000040000fa
:0402a4002203000031
:020000040000fa
:0402a800220300002d
:020000040000fa
:0402ac002203000029
:020000040000fa
:0402b0002203000025
:020000040000fa
:0402b4002203000021
:020000040000fa
:0402b800220300001d
:020000040000fa
:0402bc002203000019
:020000040000fa
:0402c0002203000015
:020000040000fa
:0402c4002203000011
:020000040000fa
:0402c800220300000d
:020000040000fa
:0402cc002203000009
:020000040000fa
:0402d0002203000005
:020000040000fa
:0402d4002203000001
:020000040000fa
:0402d80022030000fd
:020000040000fa
:0402dc0022030000f9
:020000040000fa
:0402e00022030000f5
:020000040000fa
:0402e40022030000f1
:020000040000fa
:0402e80022030000ed
:020000040000fa
:0402ec0022030000e9
:020000040000fa
:0402f00022030000e5
:020000040000fa
:0402f40022030000e1
:020000040000fa
:0402f80022030000dd
:020000040000fa
:0402fc0022030000d9
:020000040000fa
:04030000c60600002d
:020000040000fa
:04030400900600005f
:020000040000fa
:0403080022030000cc
:020000040000fa
:04030c0022030000c8
:020000040000fa
:0403100022030000c4
:020000040000fa
:100400000f4021000eff24000e01880000000000b4
:10041000000020000000e000020032000001200087
:100420002002880014000700670207000000e000b7
:1004300003003a0040332200010020000200370090
:100440000000200001002000810f70000100320038
:100450000f000700000020000000e0000200320052
:100460000000020000000000fe1c0200000000006e
:100470000040da000000fe00200420000000e00040
:1004800002003200002020009001880000000600d9
:10049000a1028800800478000000eb001f003700f4
:1004a000e284440054a0b4009905ba00e2844400f8
:1004b00054a0b4009906ba00e284440054a0b400e9
:1004c0000006eb00476fde00fd07b200ae018800ba
:1004d000636ce10003003a000ad801000000eb0061
:1004e0000e003700606ce10008003a00004deb00a0
:1004f0000a05e800020039003420ec000af0a000f0
:100500008b05e900f9ff3e00040037006168e10057
:10051000010032000086eb000b00070019c7ba008b
:100520000e04e0001905ba0003003a000a00e000da
:10053000dbff3a0000000600fe07b200ae028800b2
:100540008a047800f5ff37000cd0a300e20f4d00bd
:100550001c00390089027800354dba000a05e80010
:10056000020039003420ec000af0a0008b05e900fd
:100570000f003200254dba000a05e80002003900dc
:100580003420ec000af0a0008b05e90008003200de
:100590000c00e0000600320015cdba000a05e800a4
:1005a000020039003420ec000af0a0008b05e900bd
:1005b0008984e80054a0b4000b00e000e2ff3a0098
:1005c000000006009902ba00055d78008b05e9007d
:1005d000f7ff3200c82ade00055d78008b05e900d0
:1005e000f3ff32000c00e000f1ff320019ddba0029
:1005f000eeff3700942004000000000006230400f2
:10060000000000000000fa000088a9000080fa0045
:10061000004006000000fa0001c8a9000080fa00ae
:10062000004006000000fa000308a9000080fa005c
:10063000004006000000fa000488a9000080fa00cb
:10064000004006003200f8003400f800881f7800ef
:1006500018002000a80188000820200098018800c8
:10066000000000004f0478000000fa00ffff370090
:100670003200f8003400f800881f780018002000cd
:10068000a8018800082020009801880000000000d0
:100690004f0478000000fa00ffff37000000fa0066
:1006a000ffff37000000fa00ffff37000000fa00ec
:1006b000ffff3700801f78000000fa0010808000e4
:1006c0000000e800108088000068a9000080fa009f
:1006d0004f00780000400600801f78000000fa00fc
:1006e000008080000000e8000080880000e8a90089
:1006f000208080000000e80020808800308080009a
:100700000000e80030808800408080000000e800a1
:1007100040808800508080000000e8005080880001
:100720000080fa004f00780000400600809fbe0065
:100730000000fa00000000001111800000102000ed
:10074000008060000000e000fbff32000188a9008b
:100750000080fa004f00be0000400600809fbe00ef
:10076000821f78000200fa0030118000000f78002c
:10077000a080800000014000010a210081004100aa
:100780009e0878000000e800a08088000168a900a9
:100790000080fa004f0178004f00be0000400600c4
:1007a000801f78000000fa001011800064006000d3
:1007b0000000e0000200320010002000708088007d
:1007c0000828a9000080fa004f00780000400600c9
:1007d000809fbe000000fa000468a900502080003d
:1007e000610060000000e000010032000a04a9007e
:1007f00050208000620060000000e0000d00320028
:1008000000218000620060000000e000080032006b
:100810004013210051c0b30001487800701321003b
:1008200011c0b3000148780010c0b3001af0b7003f
:100830000a24a9000080fa004f00be000040060014
:100840003600f800809fbe00829fbe00849fbe00dd
:10085000869fbe000000fa000228a9002110800037
:1008600000082000008060000000e0000800320066
:1008700004e2a9002430ef005081800020009000a5
:100880008000eb00010878002a30ef000d013700ee
:10089000208180008000eb00b200200003002000d7
:1008a000820f5000838f5800fc003e0000060100bc
:1008b0000b00370039003700750037009c00370007
:1008c000f3003700c8003700d9003700f0003700c8
:1008d000db003700f10037003400370050003700ec
:1008e000c001210020009000620060000000e000d4
:1008f000f3003a00c00121001000900050818800f0
:10090000c0012100100090001040780026f0b700d0
:10091000c00121001000900010009000408188006c
:10092000c001210010009000e6004000c00121003d
:1009300011009800c0012100900090004015210096
:10094000808f500003003a00c0012100e114210013
:1009500011009800c0012100a00090000100a1003a
:1009600021009800c001210090009000c0012100ea
:1009700010007800808f500004003a00c001210070
:10098000a00090000110a000210098000002a80023
:100990002000200020818800ca0037000022a80023
:1009a0002000200020818800c60037002110800030
:1009b00000002800008060000000e0000800320015
:1009c000c0012100604090008040e800c00121008b
:1009d0006140980040002000e0080700b90037009f
:1009e000f08380008000d100f00f200000806000c4
:1009f00060108800f0838000610060000040780093
:100a00000004e00003003200b000200020818800d4
:100a1000ac0037003000200020818800a90037009a
:100a20002110800000002800008060000000e0002d
:100a300008003200c0012100604090008040e800c2
:100a4000c00121006140980040002000c308070059
:100a50009c0037000022a800f08380004800de00e0
:100a6000e6006000000f200001007000f0838800a5
:100a7000f08380000000a000f083880010c0b30065
:100a800080f0b70020002000208188008d00370012
:100a900080d0bf00e14f50000a003200408180004a
:100aa00010007800f08388004081800020009000d2
:100ab00010848800408180002040900084f0b700be
:100ac000010037008070ef00f1838000f00f2000fc
:100ad000808f500009003600f08380004800de005f
:100ae000e6006000000f2000010070006010880028
:100af000a00020002081880072003700f083800071
:100b000060108800f0838000610060000040780081
:100b10000004e00003003200500020002081880023
:100b20006800370030002000208188006500370011
:100b30002110800000002800008060000000e0001c
:100b400009003200c0012100604090008040e800b0
:100b5000c00121006140980005e2a900500020007a
:100b60007e0807005700370084d0bf008080fb005c
:100b70008100e900cf08de00814078000040e900f4
:100b800084f0b7000104e0001000320040818000d2
:100b9000660040004081880026d0bf000040e90088
:100ba00026f0b70026d0bf000004e00003003a00a2
:100bb0002000200069080700420037000022a8003a
:100bc00020002000208188003e0037001084800033
:100bd000904078008180fb00611088000000e800f0
:100be00010848800370037002110800000002800a2
:100bf000008060000000e00009003200c001210018
:100c0000604090008040e800c001210061409800f1
:100c1000400020005108070005e2a9002900370024
:100c20000062a80080002000208188002500370095
:100c300080002000208188000062a8002100370089
:100c40001084800071108000814078000148780095
:100c50000000e8001084880084d0bf000040e90054
:100c600084f0b70084d0bf000004e000040032002c
:100c700000a2a90060002000208188000200370047
:100c800000a2a800240807000082a8000d00370079
:100c900020002000310807000a003700c0012100b1
:100ca000604090008040e800c00121006140980051
:100cb0006000200029080700000000000100370044
:100cc000000000000080fa004f03be004f02be008b
:100cd0004f01be004f00be003600f9000040060084
:100ce000809fbe000000fa0000000000911180000b
:100cf00000102000008060000000e000fbff3200d8
:100d000003e8a9000080fa004f00be000040060082
:100d10000000fa0003c8a9000080fa0000400600a5
:100d2000809fbe003200f8003400f8001000200060
:100d3000a001880000202000900188000000000031
:100d40000000fa0001288000008020000080600080
:100d50000000e00007003200a02880004400de0010
:100d600040828800b02880005082880010c0b30004
:100d70001bf0b70016e8a9000080fa003400f90063
:100d80003200f9004f00be00004006003200f800bb
:100d90003400f800881f780018002000a80188009f
:100da0000820200098018800000000004f0478000f
:100db0000000fa0016c8a9002c8ea8002caea800ce
:100dc0002ccea800ffff37000000050003f0a200b2
:100dd000889fbe008a9fbe008c1f7800fe0007001f
:100de000050133006450e1004f0032006420e1004f
:100df0005200320003826c0007003b000905d0005e
:100e00000306d000820f54000c065d00020039007a
:100e100002003200890178000306780085825500bf
:100e200004003d000003fd008103fd008502ea008f
:100e30008b854200840f720002003b0060001000ae
:100e4000e08018006011b8000005eb007a28e1008e
:100e50000a00390006007800c75ddd00f707b20020
:100e6000878075002d003700828171000a017800ab
:100e7000610560008180d1000080d3008502e90017
:100e8000f9ff3b00060440008784480002003b0055
:100e900060041400e0841c000988a30007003200ed
:100ea0008a81710082817100610164008904d1002e
:100eb0000884d3008b05e800170037000978a300e9
:100ec00013003a000b00e000130034008b05e9002a
:100ed0000804440089844c000a4474000978a30083
:100ee0000d003a000b00e000070034008b05e9001c
:100ef0000804440089844c0001003a000b002000e3
:100f00000978a300f7ff32000001eb000200370070
:100f1000828171000a017800740007000cf0a700bc
:100f200001f0a000bd0037006420e10002003a009b
:100f3000838f6c00bd0033000801be000200be00bc
:100f4000b6003700889fbe008a9fbe008c1f7800c5
:100f5000a1000700a800330003866c006450e10084
:100f60002e0032006420e100330032006150e100c5
:100f70002f0032006120e1003100320085855500ec
:100f8000eb07b0000900200008042000050037002e
:100f90000804440089844c000a0031000603430021
:100fa00087834b000001530081815b00f8ff330011
:100fb0000203be000800a0000804440089844c001d
:100fc000f6ff3900c639dd008301730001003200ed
:100fd000130020008904d1000884d3000998a300dd
:100fe000050032000800a7000300a0008904d1001a
:100ff0000884d3008b05e8008904d1000884d3005d
:101000000001eb000281d2003800070001f0a100ce
:101010000cf0a70001f0a000800037006420e10080
:10102000820032000801be000200be00f7ff370058
:101030006120e1007d0032006000b800f3ff37005e
:101040000000200001f82700f0ff37001400200006
:10105000bd003700f4ff2f00bb0037000001be00c9
:10106000480007000470a70003f0a1006509b10063
:10107000160032000d0035006828e100060035003a
:10108000f0ff2f00f1ff27000300e00013003b00fa
:101090000100280000000500000040008180480099
:1010a0008502e900fcff3a0008003700f88f420093
:1010b00002003c008000eb00000005008100d10030
:1010c0000080d3008502e800fcff3a000300e00046
:1010d00002003b0060001000e080180000000600e5
:1010e0004f89de0082017800b200370081002000c5
:1010f000618055000b003d000b00200061fe2f00b9
:101100000100e1001d003400828171006101640072
:101110008904d1000884d3000000e800faff3a00f7
:101120007100200061006400030070000200600094
:101130000900320061044400e0844c000988a500e5
:10114000050032008b05e8006808e10002003a0063
:101150008904d1000884d300f20f20000258e10076
:1011600005003d00c75ddd00f907b200898075000c
:1011700008007800000006000bf827008b007800bc
:1011800000000500c70ade00f107b200f50fb2004b
:1011900008003200e1cf4200020032000170a000de
:1011a00024000500810f70000100320004080500d2
:1011b00044000500810f700002003a001400050091
:1011c0008502e9000000400081c04800fcff3b00b0
:1011d0000170a000240005000004be00e9ff070024
:1011e0000003be000405be000200be00e5ff0700cc
:1011f000844f7500000006000200be006450e1004c
:10120000050036006420e100020036000968a300f2
:1012100001003a000800be000160a0004f067800ff
:101220004f05be004f04be0000000600f0ff2f0077
:10123000f1ff2700f9ff3700889fbe008a9fbe009c
:101240008c1f7800e4ff0700ebff330003866c007f
:101250006450e100240032006420e10027003200e5
:101260006150e100220032006120e10021003200e3
:101270008b854200eb07b1000134b800003ab8009a
:101280000804420089844a00013ab8000030b800de
:101290008880400009014a0004003300000040003b
:1012a00081804800020149008b05e900c909dd0081
:1012b000830170000100320013002000c814de001a
:1012c0004814dd004709de001200b200c808de0045
:1012d0000884700085ff070001f0a1000cf0a70052
:1012e00001f0a000cdff37006120e100cfff320008
:1012f0000801be000200be00f7ff37006150e100a8
:10130000fcff3a00c9ff37006022b8000602200047
:101310000000d0008180d2000482d2008582d200f9
:101320000000a0000202520083825a000300310034
:101330000202420083824a000000a1000603e90085
:10134000f3ff3a0000000600889fbe008a9fbe009f
:10135000841f7800a0ff07004f00780011003300c1
:10136000f0ff2f00838f6c0006003b000405650032
:101370000a00a7000800370009f0a60010002000ae
:1013800008003700820f5400838f5c00030039008f
:101390001000200001003e000000200009f0a7001e
:1013a0000000ea004f05be004f04be000000e00050
:1013b00000000600881f7800030478000300e000a6
:1013c00007003d0060001000e08018006001190077
:1013d000e081190002003b0001f02d0003003700fe
:1013e0000400070008f0a70001f0a0004f047800f7
:1013f00000000600889fbe008a9fbe000082700029
:101400000402710004827100260032000004be0054
:101410000200be006011b8006b0920009502200098
:101420000182cf000a0039000541b1000082cf00df
:10143000070039000541b1000982cf0004003900de
:101440000541b1000882cf00010039000541b1001b
:1014500005425200120032000a003b0082817100f6
:10146000610164008100d1000080d3008984d30031
:101470000884d3008b05e8000442e800f7ff3a0037
:10148000070037000804440089844c00000048002d
:10149000818048008b05e9000442e900f9ff3a0029
:1014a00012ff07004f05be004f04be0000000600fb
:1014b0008001780002003700b15978000201e9008c
:0c14c0000200e000fcff3a000000060003
:020000040000fa
:1014cc006932000063200000696e0000697400003e
:1014dc0000200000526500006c610000795f000084
:1014ec006f6e000020610000636300003a00000092
:1014fc0020610000707300003a00000020460000dc
:10150c00415f0000636100006c3a000000200000a5
:10151c006c6900006e5f0000636100006c3a0000b3
:10152c0000200000424100005f630000616c00007d
:10153c003a000000204c0000494e00003a20000008
:04154c00000000009b
:020000040000fa
:101550000000fa0086cea80086eea80078cea8008b
:1015600078eea800b1718000f0c32f000080600009
:10157000b0718800018ea9000080fa00000006000a
:101580000000fa0015cea900292ea9003ccea90022
:101590003caea90028eea90028cea90019cea800cb
:1015a0000080fa00000006000000fa002d2ea900bd
:1015b00040cea90040aea9002ceea9002ccea90077
:1015c0000080fa00000006000000fa002d2ea8009e
:1015d00040cea90040aea9002ceea9002ccea90057
:1015e0000080fa00000006000000fa002d2ea9007d
:1015f00040cea80040aea9002ceea9002ccea90038
:101600000080fa00000006000000fa002d2ea9005c
:1016100040cea90040aea8002ceea9002ccea90017
:101620000080fa00000006000000fa002d2ea9003c
:1016300040cea90040aea9002ceea8002ccea900f7
:101640000080fa00000006000000fa002d2ea9001c
:1016500040cea90040aea9002ceea9002ccea800d7
:101660000080fa00000006000000fa00014ea90008
:1016700015aea900158ea9000080fa000000060032
:101680000000fa00156ea8000080fa0000000600b5
:101690000000fa00b170800000802000008060002f
:1016a0000000e000020032000000eb000100370003
:1016b000100020000080fa00000006000000fa0080
:1016c0009133800000fc2f00008060003000b300e8
:1016d00090338800148ea9003002a9008111800087
:1016e00090ff2f00008060008011880030a2a900c8
:1016f0003062a90040012000c011880033a2a90077
:1017000033e2a80023e8a80031e2a8003342a80091
:101710000080fa00000006000400fa00100798009c
:101720009e009000010f78009e009000000f2000a6
:1017300000806000100798001e0090004480de00ca
:10174000100798001e009000e90f500003003400bd
:101750001e00900067004000100798001e009000d7
:101760000003b000100798001e0090004000070022
:101770009e007800110798001e0090006f00600026
:10178000100798001e009000e90f5000030034007d
:101790001e00900067004000100798001e00900097
:1017a0000003b000100798001e00900030000700f2
:1017b0000080fa00000006000200fa00000f780026
:1017c0001e007800c200de00b04721000008b8000b
:1017d0000100d1000003b000250007001e017800c1
:1017e000c210de00b04721000008b8000100d1009f
:1017f000410620008180b90000005100d1cc2c00ae
:101800000100b8004308de000003b0001800070024
:101810001e017800d0cc2c000010b8004308de0078
:10182000ea00b900000051000003b00010000700fa
:101830000080fa00000006000200fa00000f7800a5
:10184000050037001e007800104078000000fb0003
:101850001e0fe800060007001e0078001040780008
:101860000004e000f7ff3a000080fa0000000600e4
:101870000200fa00000f78000000000091118000c3
:1018800000202000008060000000e000fbff3a0024
:101890001e007800a01188000080fa0000000600f9
:1018a0000000fa000430ef000230ef000030ef00db
:1018b00005e1a9000421a90004c1a90021088000b4
:1018c00000032000010070002008880060892900c2
:1018d0001008880001428000f0ff2800808060002e
:1018e0000000230001007000004288000068a90089
:1018f0002068a80011e1a9001021a90010c1a900c9
:10190000810880000003200001007000800888002a
:101910000621ef00d03020006008880011428000ce
:10192000f0ff28000080600000d0a0001042880076
:1019300000e8a90020e8a80011e1a80005e1a8003e
:101940000080fa00000006000200fa00004f780054
:101950000030ef00000000009e80fb00008080004f
:10196000808f5000fcff3e000030ef000080fa0046
:10197000000006000400fa00100798000000eb00c9
:10198000000f780003003700270009000000000066
:101990001e0fe8001e0090009e007800808f50000f
:1019a000f9ff35000080fa00000006000200fa008e
:1019b0000c30ef000e30ef000000eb00000f78005d
:1019c00005003700e00821001e0040008040eb00c9
:1019d000014878001e0fe8001e007800e70f500055
:1019e000f8ff34009007200020368800792ea800e8
:1019f000872ea9002134800000fc2f0000806000a9
:101a00000000a00020348800790ea900870ea900ec
:101a10002002a9000111800090ff2f0000806000cb
:101a20000011880020a2a9002062a900100820004f
:101a30004011880011118000f0f32f000080600039
:101a4000101188002168a8002828a80021e2a80019
:101a500023a2a80023e2a9002188a900192ea8002a
:101a60002d0ea800232ea800370ea800152ea900c1
:101a7000290ea9000080fa00000006000000fa000c
:101a80002d0ea8000080fa00000006000000fa00f9
:101a90002d0ea9000080fa00000006000800fa00e0
:101aa0006047980000000000111180000010200025
:101ab000008060000000e000fbff3200000000003a
:101ac0001111800000802000008060000000e00014
:101ad000fbff3a002342a8002362a8002422ef0063
:101ae00000000000500520002011880000000000c8
:101af0001111800000102000008060000000e00054
:101b0000fbff3200200d20009aff0700100c200080
:101b1000100798001e00900020118800200d200062
:101b200094ff07009e009000210798006e409000ef
:101b30000080fb00e1052000810f50001000320002
:101b4000e1052000810f500003003c00ff0f500012
:101b50000800320013003700c1092000810f500037
:101b60000d003200d10d2000810f5000070032001f
:101b70000c00370010002000000f7800090037002b
:101b800020002000000f78000600370040002000f1
:101b9000000f78000300370080002000000f78005d
:101ba00000000000ae0090001e0078001c0007003e
:101bb0002007980000000000111180000010200094
:101bc000008060000000e000fbff3200200d2000dc
:101bd00068ff07001e007800201188002e0090008a
:101be0008080ea00f00f200000806000200798004d
:101bf0000000000011118000001020000080600033
:101c00000000e000fbff3200200d200059ff07001c
:101c10002e009000201188000080fa0000000600cd
:101c20000400fa00000f7800110798001e009000d1
:101c30001e004000100798009e009000f00f20004a
:101c4000808f5000050034009e009000f00f2000af
:101c5000008060000000e800100798001e0090005f
:101c60000080fa00000006000400fa0020479800f7
:101c700000000000111180000010200000806000b2
:101c80000000e000fbff32000000000011118000a6
:101c900000802000008060000000e000fbff3a00b0
:101ca0002342a8002362a8002422ef0000000000c5
:101cb0005005200020118800000000001111800054
:101cc00000102000008060000000e000fbff3200f8
:101cd000200d200027ff07002e4090000080fb0011
:101ce000000f78001e00780020118800200d2000d1
:101cf00020ff07000080fa00000006000000fa0044
:101d00002023ef002223ef002423ef003223ef00f3
:101d10002623ef0001198000f0cf2f000080600023
:101d2000001988002043a80080c0b30024e3b70056
:101d300021198000f00f2e000080600000b0a0008c
:101d4000201988002143a80021e3a8002023a8002f
:101d5000280ea800282ea800518ea80051aea80079
:101d60000080fa00000006000600fa002007980034
:101d70000000eb00000f78000000eb001007980057
:101d8000220037002e00900000407800f043b2009f
:101d90008080fb00f003200000806000421980007a
:101da00001fc2f00810061000100700040198800d3
:101db00040062000effe070001a8a9002023a9008b
:101dc0000000000000000000000000000000000013
:101dd0000000000000000000000000000140800042
:101de00000002200008060000000e000fbff3200e5
:101df0009e0078000018800000804000000f7800ee
:101e00001e0090000000e800100798001e009000df
:101e1000e30f5000dbff34001e0078004280de003c
:101e2000000f78001e0078000080fa000000060015
:101e30000000fa000042200010128800100020006c
:101e400020128800c00028000012880028aea900d7
:101e5000008ea900286ea9000e8ea900366ea9007a
:101e60000080fa00000006000400fa00000f78006d
:101e7000110798000000000000128000620060005e
:101e80000000e000fcff3a001e007800100078001f
:101e900040128800000000000112800000022000b3
:101ea000008060000000e000fbff3a001e00900090
:101eb00041128000010878000080fa00000006004e
:101ec0001800fa00100f9800210f9800320f9800a8
:101ed0000000eb00000f78000000eb0010079800f6
:101ee0000000eb00700798000000eb00000f980066
:101ef00020002000600798002e0890000000d1000c
:101f0000200f98001e0890000000e00005003a0035
:101f10000000eb0050079800700047002007980071
:101f200004003700ee009000510798009e089000d2
:101f3000210798003e0890000000e00005003a00ec
:101f40000000eb00400798006e0047003007980043
:101f500005003700ee00900041079800be08900091
:101f6000310798000000000000128000620060004d
:101f70000000e000fcff3a001b0037000012800068
:101f8000620060000000e00008003a002e009000af
:101f90001000780040128800ae0090005e009000b3
:101fa00000804000200798001e0fe800011280000a
:101fb00000022000008060000000e0000a003a00fb
:101fc0003e0090004112800001087800be009000a1
:101fd0004e00900000804000300798001e009000e6
:101fe0000000e800100798002e0890009e0078007e
:101ff000808f5000e1ff39000f0037000112800090
:1020000000022000008060000000e0000a003a00aa
:102010003e0090004112800001087800be00900050
:102020004e00900000804000300798001e00900095
:102030000000e800100798009e0090002e08900015
:10204000808f5000edff39001e0078000080fa00fc
:10205000000006000400fa00100798008e007800c7
:102060000e80e80080ff07001e0078000080fa0064
:10207000000006000600fa00000f78001107980023
:1020800022079800ae0090001e0078000101780041
:102090009e0090008aff07000080fa000000060002
:1020a0000000fa0011128000004020000080600053
:1020b0000000e00002003a000000eb0001003700e1
:1020c000100020000080fa00000006000000fa0066
:1020d000001280000080fa00000006000a00fa00ea
:1020e00030079800410798000000eb00000f7800cf
:1020f0003e009000e10f500007003a00ce00900033
:10210000f0ff20008080600000002a0001007000c5
:1021100010079800080037003e0090000000e00023
:1021200005003a00ce009000f0ff20000080600023
:1021300000d0a000100798002caea9001e00780067
:1021400000004000e4004700008140009e0078004d
:10215000e0ff2f008088b9008080e8001e00780032
:10216000000040008e81e80000804100c1ff0700b0
:10217000000f78001e0078000000e000efff320042
:102180002caea8000080fa00000006000000fa0053
:10219000792ea9007d2ea900642ea900640ea80046
:1021a00000062000a0368800e000200010348800df
:1021b00001208000f08f2f000080600000a0a000b0
:1021c000002088000000000001208000000e200098
:1021d0008080600000082000808f5000faff3a00e5
:1021e0000004a9003008200080208800202d200055
:1021f00090208800f0012c003020880001cba9003d
:1022000001aba80001588000f0fc2f0000806000a6
:102210000050a0000058880001588000c0ff2f0027
:10222000008060000058880060042000105888007a
:1022300070002000705888002044200060588800fa
:1022400000202100205888000020210030588800fc
:1022500030e4a800802180003000b3008021880095
:1022600001eba80000022000005988000044200073
:1022700060598800700020007059880020022000fa
:1022800010598800002021002059880000202100da
:102290003059880021eba80031208000f0ff210098
:1022a00000806000302088000004a800c120800069
:1022b000c0ff2f0000806000c020880000fe2f00bb
:1022c0008021880000fe2f00a021880000fe2f0042
:1022d000c021880000d02f00002288000046220084
:1022e000202288000046220040228800004622006a
:1022f00060228800802180000030a00080218800ba
:10230000a02180000030a000a0218800c021800012
:102310000030a000c0218800002280000030a10011
:1023200000228800202280000030a10020228800a6
:102330000121800000ff2f00008060000000a0004d
:102340000021880001218000f0f02f000080600053
:102350000040a0000021880001218000f00f2f0024
:10236000008060000080a000002188000121800022
:10237000f0ff20000080600000c0a0000021880065
:102380001404a8001424a8000004a90031e4a90042
:102390002a24ef0050218000402188004021800045
:1023a0001021880010218000002188000120800079
:1023b000f08f2f00008060000020880000000000e7
:1023c00001208000000e2000008060000000e0007e
:1023d000fbff3a000c24a8002468a8000080fa0043
:1023e000000006000200fa000000eb00000f780079
:1023f000c0898000d1898000000f7800e0898000ca
:10240000e0868800f0898000f0868800008a8000dd
:1024100000878800108a800010878800208a80004a
:1024200020878800308a800030878800408a8000ba
:1024300040878800508a800050878800c2898000c9
:10244000d3898000100a200001002000800f510075
:10245000818f590023003a00a001200030848800b9
:10246000f0082100104078000000fb00008b88007d
:1024700000092100104078000000fb00108b88004c
:1024800010092100104078000000fb00208b88001c
:1024900020092100104078000000fb00308b8800ec
:1024a00030092100104078000000fb00408b8800bc
:1024b00040092100104078000000fb00508b88008c
:1024c00050092100104078000000fb00608b88005c
:1024d00060092100104078000000fb00708b88002c
:1024e000020007000080fa00000006000000fa0069
:1024f000308480004200dd00009088000000eb0086
:10250000109088008000200020908800108b8000b0
:10251000c800dd00008b8000010070003090880052
:10252000308b8000c800dd00208b8000010070002f
:1025300040908800508b8000c800dd00408b8000f8
:102540000100700050908800708b8000c800dd0092
:10255000608b800001007000609088000000000027
:1025600000000000000000003064a800000000002f
:10257000000000000000000000000000802180003a
:10258000680060000000e000fcff3a000080fa00f4
:10259000000006000a00fa00400798000000eb0067
:1025a000100798000000eb00000f78006000b800f2
:1025b00020079800310798004e00900030409000ae
:1025c0000080fb00c400dd000020210000804000ee
:1025d0001000780061006000100798001e00900055
:1025e0000000e0001a003a004e00900030409000d9
:1025f0000080fb00c400dd000020210000804000be
:1026000090007800c0ff2100008060004200de00e2
:102610008000eb004e0190002001980031019800ed
:102620004e00900041c0b300214098004e00900041
:10263000304090000080fb00c400dd00002021003d
:102640000080400010007800620f60006b003700cf
:102650004e009000304090000080fb00c400dd0080
:102660000020210000804000100078006101b800c7
:10267000c0ff210001002000020278000301780061
:102680008001780001007800030262000000610010
:102690008000eb00c000dd00000020000001be0053
:1026a0006120b8000001710081817100220798004b
:1026b000330798002e009000be009000c000dd009f
:1026c000000020004e019000200198003101980088
:1026d0004e009000304090000080fb004400dd0080
:1026e0008080e80000202100008040001000780079
:1026f0006101b800f0ff2000010020000202780014
:102700000301780080017800010078000302620074
:10271000000061008000eb00c000dd000000200030
:102720000001be006120b8000001710081817100cc
:1027300022079800330798004e0090002001900077
:10274000b00190002e029000be0290004628dd00ed
:10275000ca20de00810070004620dd00020040003b
:10276000838048004e0190002001980031019800bc
:102770004e009000304090000080fb004400dd00df
:10278000e40040000020210000804000100078009c
:102790004a00de008000eb00200798003107980017
:1027a0004e00900020019000b00190002e0090009b
:1027b000be00900002004000838048004e0190005f
:1027c00020019800310198004e00900031c0b30004
:1027d000214098004e009000304090000080fb00a7
:1027e0004400dd00e40040000020210000804000a3
:1027f0009000780000202000008f60001e0078000c
:10280000e10f500004003a004e00900021c0b300d8
:1028100011409800730037004e00900011c0b300c3
:10282000114098004e009000304090000080fb0066
:102830004400dd00e6004000002021000080400050
:1028400010007800004078008080fb004e0090006f
:10285000410098004e009000304090000080fb0046
:102860004400dd00e6004000002021000080400020
:10287000100078004800de00004078008080fb00f7
:102880004e009000510098004e00900030409000a3
:102890000080fb004400dd00e80040000020210033
:1028a0000080400010007800004078008080fb002d
:1028b0004e009000610098004e0090003040900063
:1028c0000080fb004400dd00e80040000020210003
:1028d00000804000100078004800de0000407800d2
:1028e0008080fb004e009000710098004e00900028
:1028f000304090000080fb004400dd00ea00400012
:102900000020210000804000100078000040780086
:102910008080fb004e009000010898004e0090005f
:10292000304090000080fb004400dd00ea004000e1
:102930000020210000804000100078004800de00e8
:10294000004078008080fb004e0090001108980045
:102950004e009000304090000080fb004400dd00fd
:10296000ec004000002021000080400010007800b2
:10297000004078008080fb004e0090002108980005
:102980004e009000304090000080fb004400dd00cd
:10299000ec00400000202100008040001000780082
:1029a0004800de00004078008080fb004e00900070
:1029b000310898004e009000304090000080fb00ed
:1029c0004400dd00e40040000020210000804000c1
:1029d0001000780000407800ef4060004e0090004a
:1029e000015898004e00900030409000020007000f
:1029f0000080fa00000006000200fa00004f780094
:102a000000218000620060000000e000050032004c
:102a10001e407800e14f500002003a002024a90037
:102a20001100370000218000640060000000e00019
:102a3000050032001e407800e24f500002003a00cc
:102a40002044a900080037000021800068006000d1
:102a50000000e000040032001e407800e34f500008
:102a600001003a002064a9000080fa00000006007e
:102a70000e00fa00881f7800400798005107980060
:102a8000620798000000eb00000f78000000eb00e8
:102a9000100798000000eb00200798000000eb00f2
:102aa0003007980018c0b3006011b8004e009000c5
:102ab000de00900065f907000000e000010035002d
:102ac0000044eb000804e0000b0032001e00780018
:102ad000ee00900000804000d1c2b30001487800b1
:102ae0001e0fe8004e009000de00900001f0a200f2
:102af00040079800510798000000eb00200798005d
:102b00000a00370002002000031224004e0090004b
:102b1000de0090000bf9070040079800510798006d
:102b20002e0090000000e8002007980018c0b300b5
:102b300002002000031224004e009000de009000ee
:102b400044f907000000e00001003d000044eb00f4
:102b50000804e000ebff3a00100020001007980086
:102b60002b0037004e009000de0090003bf907007c
:102b7000300798003e009000cf80de0058f9070033
:102b80000001be004e009000de0090008ff80700ac
:102b900040079800510798001e007800ee00900052
:102ba00000804000be009000814078000143b000ea
:102bb000014878001e0fe8002e0090000000e000a1
:102bc00006003a001e007800ee00900000804000f1
:102bd000e1c2b300014878001e0fe80002002000a7
:102be000031224004e009000de00900092f90700ce
:102bf00040079800510798002e0090000000e9005f
:102c0000200798001e0090000000e80010079800c0
:102c10001e009000e50f5000d2ff34004f047800f2
:102c20000080fa00000006000400fa0060a62800f8
:102c300001fb0700c0012100e114210011009800f0
:102c4000c0012100e114210001087800c001210029
:102c5000a00090000110a00021009800c0012100f8
:102c6000a00090000100a10021009800c0012100f7
:102c70008040eb0061409800000320005010880065
:102c800000002800001088000422ef000228a9009c
:102c90002228a80030c0b300004f780030c0b30035
:102ca0001047980030c0b3002047980010c1b3000f
:102cb000004f7800130020000e017800e10720008b
:102cc00080062000b600070010c0b3001efb0700fe
:102cd00050c1b300004f7800130020000e017800af
:102ce000e107200080062000ad00070010c0b300ff
:102cf00015fb07000080fa00000006000200fa0041
:102d0000c0012100e0409000014f78001e40780093
:102d10000080fa00000006000000fa0040818000f8
:102d2000660040004081880026d0bf000040e900d6
:102d300026f0b70026d0bf000004e00003003a00f0
:102d40004000200020818800020037001000200091
:102d5000208188000080fa00000006000200fa00ce
:102d6000000f78000042a8005081800020009000f1
:102d70000000e0000300320050818000200090003d
:102d80001e0878002430ef000080fa0000000600e2
:102d90000800fa00000f78002147980022079800e9
:102da00033079800c00121002000900061006000fe
:102db0000000e0000a003a00ae0190002e419000b1
:102dc0009e007800a01521002f0107003e01900011
:102dd000a115210010c0b3001f0007000300370039
:102de0003e0090008000eb00010878000080fa00af
:102df000000006000800fa00000f78002147980044
:102e00002207980033079800c0012100200090009d
:102e1000610060000000e0000a003a00ae0190008e
:102e20002e4190009e0078004015210028010700e7
:102e30003e0190004115210010c0b30006000700bc
:102e4000030037003e0090008000eb00010878008e
:102e50000080fa00000006000600fa00004f78002b
:102e60001107980022079800c0012100200090005f
:102e7000610060000000e0002e003a002e0090008b
:102e80001100200001087800c00121001000780026
:102e90009e00900011009800c001210010007800f1
:102ea0001e487800c001210010007800ae0090009c
:102eb00021009800c001210010007800e6004000c9
:102ec000c001210001087800c001210090007800b5
:102ed00040152100808f500003003a00c0012100fe
:102ee000e114210001087800c0012100a000900039
:102ef0000110a10021009800c00121009000900065
:102f0000c001210010007800808f500004003a00ba
:102f1000c0012100a00090000100a0002100980045
:102f2000208180000000e00005003a000228a8008f
:102f3000030037002e0090008000eb0001087800ad
:102f40000080fa00000006000000fa00c001210025
:102f5000200090006200600000f0a7000000ea007e
:102f60000000ea004f00de00004078000080fa0018
:102f7000000006000000fa00c001210020009000bf
:102f80006100600000f0a7000000ea000000ea0015
:102f90004f00de00004078000080fa0000000600cc
:102fa0001400fa006007980071079800020f98005b
:102fb000130f980010002000500798008e08900012
:102fc000010f78000000eb00100798003800370070
:102fd0007e00900000407800004f98001e007800ae
:102fe00010407800104f98001e0fe8000000eb0022
:102ff000200798000000eb00300798001e00370003
:10300000ea00470068004700810178006e019000e7
:1030100021c0b3005eff0700060037003e009000ad
:10302000e10f4000070032003e0090000000e80081
:10303000300798005e009000e10f5000f7ff32006b
:1030400001003700000000003e009000e10f40004a
:103050000e0032005e009000e20f50000b003200c4
:103060002e009000ea0f5000070032002e00900062
:103070000000e800200798005e0090000000e000db
:10308000dfff3a0001003700000000005e00900002
:103090000000e0000b0032007e0090000000e8001d
:1030a000700798001e0090000000e80010079800cc
:1030b0009e0090001e089000808f5000c4ff3900d1
:1030c00001003700000000000080fa000000060048
:1030d0001400fa006007980071079800020f98002a
:1030e000130f980010002000300798000000eb003c
:1030f00020079800580037007e00900000407800bc
:10310000004f98000000eb00000f78000000eb007b
:103110001007980017003700e600470068004700d6
:10312000810178006e01900011c0b30018ff070004
:10313000060037001e009000e10f40004b003200f7
:103140001e0090000000e800100798003e0090006c
:10315000e10f5000f7ff32003e009000e20f5000f8
:10316000080032001e007800e10f40000700320026
:103170001e0fe8003e0090000000e000e6ff3a006d
:1031800003003700000000000100370000000000cd
:103190003e009000e20f500023003a000000eb00d8
:1031a000000f78000000eb001007980017003700b0
:1031b00066004700800178006e01900011c0b300e6
:1031c0000e0890000bff0700060037001e0090005d
:1031d000e10f4000270032001e0090000000e800d0
:1031e000100798003e009000e10f5000f7ff3200fa
:1031f0003e009000e20f5000080032001e007800f0
:10320000ea0f5000070032001e0fe8003e00900059
:103210000000e000e6ff3a00030037000000000075
:1032200001003700000000003e0090000000e000b8
:10323000120032000e0890000000e800000f980015
:103240007e0090000000e800700798002e009000bb
:103250000000e80020079800ae0090001e089000d3
:10326000808f5000a4ff39000500370000000000e7
:1032700003003700000000000100370000000000dc
:103280000080fa00000006000800fa00000f780035
:103290001107980042479800330798003e009000bd
:1032a00000004000800078001e00780001087800cf
:1032b0001e007800ce409000214098001e0078004b
:1032c0009e009000210098000080fa000000060097
:1032d0000800fa00000f7800110798004247980094
:1032e000330798003e009000000040008000780006
:1032f0001e007800010878001e0078001000780099
:10330000800078000100a0001e007800010878000d
:103310001e007800ce409000214098001e007800ea
:103320009e009000210098000080fa000000060036
:103330000000fa00ffff37000000fa00ffff37002f
:103340002600fa00881f78000040220001102000ab
:10335000d3070700008fbe0050052000a10a2000ff
:10336000280707001e0078009e0090004d07070008
:10337000404798004e4090000004a2000004e00086
:1033800001003200eaff0700302322001101200073
:10339000300798004107980060562500410420003e
:1033a0005007980061079800c0bc2b00a10a2000bc
:1033b00070079800010f9800f0ef2e00d10d20004b
:1033c000100f9800210f98005e019000ee01900010
:1033d0003e009000ce0090000202be000001be0040
:1033e0001e0078009e0090004007070040479800ac
:1033f0004e4090000084fb001e099000ae09900032
:103400007e0090008e0890004400200005002000ff
:103410003e034200ae834a000202be000001be002d
:103420000600be00310707000080fb0000006400ba
:1034300000f0a7000000ea000000ea004f00de00f4
:10344000404798004e4090000004a2000004e000b5
:1034500001003200b6ff0700ef0607001e007800eb
:103460009e00900002070700300f9800410f98005f
:1034700022002000030020003e004100ae804900f1
:10348000fb060700500f9800610f980044002000d1
:10349000050020003e004200ae804a00f40607000e
:1034a000700f9800011798006200200003002000b0
:1034b0003e004100ae804900ed060700101798005d
:1034c000211798003e019000ce0190003e08900028
:1034d000ce089000800f5100818f590015003a00ee
:1034e0005e019000ee0190005e089000ee089000f2
:1034f000800f5100818f59000e003a007e0190002c
:103500008e0990007e0890008e109000800f510070
:10351000818f590007003a001e099000ae09900003
:103520001e109000ae109000800f5100818f590046
:103530000100320080ff07004f0478000080fa008d
:10354000000006000e00fa000040220001102000da
:103550005307070020079800310798005005200006
:10356000a10a2000a70607002e009000be009000d0
:10357000cc060700004f98000e4890000004a200ff
:103580000004e0000100320069ff07006000b8009d
:10359000008fbe0017003700240020000500200027
:1035a0003e014200ae814a002e009000be00900015
:1035b0003e024000ae8248000400be000202be008f
:1035c0001e0178009e019000c8060700004f980079
:1035d0000e4890000004a2000004e0000100320048
:1035e00053ff070042002000030020001e0f41008f
:1035f0005e974900f03f2000010020001e01780086
:103600009e019000800f5100818f5900e2ff36002b
:10361000810607006000b800008fbe00120037006e
:103620002e009000be0090003e024000ae82480096
:103630000400be008e06070050079800610798003e
:103640005e009000ee009000be0f5000ae8f58005c
:103650000100320038ff0700220020000300200094
:103660001e0f41005e974900f03f2000010020003e
:103670001e0178009e019000800f5100818f59003b
:10368000e7ff36000080fa00000006000000fa00a4
:103690002bff0700abff07000080fa0000000600c8
:1036a0001e00fa00400f9800520f9800630f980018
:1036b00000c02100110020006007980071079800e9
:1036c0005e099000ee0990002207980033079800e9
:1036d0003000200001002000000f9800110f98001a
:1036e0000e0990009e099000420798005307980029
:1036f000280037006e009000fe0090003e01400060
:10370000ae8148000200be0059060700200f980055
:10371000310f98002e009000be0090000e0990001e
:103720009e099000820f5000838f580001003600e0
:103730000200be004007980051079800ce0090009c
:103740007400470001017800800078004e08900066
:1037500057f707000e089000ce0890000080400048
:10376000400f98002e019000be0190000e089000be
:103770009e089000000051008180590020079800a9
:103780003107980022002000030020001e0f410096
:103790005e9749000e0990009e0990004e0090002f
:1037a000de009000800f5100818f5900d1ff320060
:1037b0000080fa00000006001e00fa00400f98008a
:1037c000520f9800630f98000000eb00200798004c
:1037d0005e089000ee08900065004000e080480020
:1037e0006200200003002000c7f607000001be00b1
:1037f0004218dd00ce10de00810070004210dd00b6
:10380000300798004107980000c0210011002000f7
:10381000a306070050079800610798005005200094
:10382000a10a2000f70507005e009000ee0090005e
:103830001c060700604f98006e4890000004a2002c
:103840000004e00003003200f30507000040eb0035
:10385000680037006000b800008fbe005c003700d1
:10386000ce0890002e0090000080400010407800ac
:103870000081fb008001eb002e0090000000e800ba
:10388000ce08900000804000104078000082fb00cd
:103890008002eb004828dd00c820de0081007000b7
:1038a0004820dd0000017100818171002e00900030
:1038b0000080e800ce0890000080400010407800b2
:1038c0000080fb008000eb00c000dd000000200055
:1038d0000000710081807100000f9800110f9800a6
:1038e0002e0090006300400020079800ce08900052
:1038f0002e00900000804000104078000081fb0006
:103900008001eb002e0090000000e800ce0890003f
:1039100000804000104078000082fb008002eb0035
:103920004828dd00c820de00810070004820dd004e
:1039300000017100818171002e0090000080e8007c
:10394000ce08900000804000104078000080fb000e
:103950008000eb00c000dd000000200000007100ce
:1039600081807100200f9800310f98002e00900088
:1039700063004000200798005e009000ee00900079
:103980003e014000ae8148000200be002e0a9000b9
:10399000be0a90000e0990009e099000d305070012
:1039a000604f98006e4890000004a2000004e00000
:1039b00003003200980507000040eb000d003700bf
:1039c00042002000030020001e0f41005e974900c6
:1039d0003e009000ce0090001e0178009e019000f5
:1039e000800f5100818f59009dff39008a05070023
:1039f00010c0b3000080fa00000006000000fa00ca
:103a00003e00070029000700d1f607002bf707004a
:103a1000a3f70700b9f80700dcf90700d8f607009c
:103a200011f7070016f707007ffc0700dff7070014
:103a300012f80700fef80700611820000000eb00f4
:103a4000a6f9070010c0b300bff70700110c200053
:103a500010002000a1f907005e30ef000e2ea90033
:103a6000002ea800042ea90001003700000000006d
:103a700040808000e10f5000030036000830ef0066
:103a8000400922000000010020808000e30f500068
:103a9000010036000430ef0030808000f50f500048
:103aa000f2ff36000630ef00f1ff37000000fa00a9
:103ab0000028ef000228ef000428ef000628ef009e
:103ac0000828ef0001438000f0f82f00808060009c
:103ad00000062000010070000043880021428000a1
:103ae000f0ff28000080600000e0a0002042880075
:103af0003322a9000080fa00000006000000fa004e
:103b0000213a8000f0f32f0000806000203a880006
:103b1000213a800000fe2f0000806000203a8800db
:103b200060022000303a880040a7a9000080fa0017
:103b3000000006000200fa00b18080000100780059
:103b40008100e800b1808800e70f50007300320068
:103b5000e70f500007003c00e30f50002d0032003b
:103b6000e50f5000310032000000e0000d0032008f
:103b70001d013700ef0f5000a5003200ef0f50007d
:103b800003003c00ee0f50009e003200160137008b
:103b9000f30f5000d8003200f40f5000d90032006b
:103ba000110137001430ef006030220000000100e6
:103bb000f0c0b300b9f7070000858000d6f6070013
:103bc00010858000d4f6070020858000d2f607001b
:103bd00030858000d0f6070040858000cef60700d3
:103be00050858000ccf6070060858000caf607008b
:103bf00070858000c8f6070080858000c6f6070043
:103c000090858000c4f60700d000200018f7070058
:103c1000f50037001430ef00603022000000010092
:103c2000f0c1b30010f80700ef0037008085800076
:103c30004800dd0080007800708580000001780079
:103c4000f00f20000000610081007000f069240086
:103c50000008b8004408de00000f78001e0078005d
:103c60000000e0000b003a001e0078008040780061
:103c7000101721000148780000172100104078003b
:103c8000804078000104a00000172100014878005e
:103c900018003700a00f20009e007800808f500091
:103ca0000a00360010172100a1cfb30001487800a8
:103cb0000017210010407800804078000104a10026
:103cc00000172100014878000a0037001e00780024
:103cd000804078001017210001487800001721006b
:103ce00010407800804078000104a10000172100f6
:103cf000014878000000eb00508588000000eb00d0
:103d0000408588001430ef00603022000000010080
:103d1000e0c5b300d4f70700b300370090858000fa
:103d20004800dd0080007800808580000001780078
:103d3000f00f20000000610081007000f069240095
:103d40000008b8004408de00000f78001e0078006c
:103d50000000e0000b003a001e0078008040780070
:103d6000201721000148780000172100104078003a
:103d7000804078000114a00000172100014878005d
:103d800018003700a00f20009e007800808f5000a0
:103d90000a00360020172100a1cfb30001487800a7
:103da0000017210010407800804078000114a10025
:103db00000172100014878000a0037001e00780033
:103dc000804078002017210001487800001721006a
:103dd00010407800804078000114a10000172100f5
:103de000014878000000eb00908588000000eb009f
:103df000808588001430ef00d0cdb30027f707008e
:103e000079003700d0cdb30097f707007600370070
:103e1000908580004800dd0080007800808580006b
:103e200000017800f00f20000000610081007000a8
:103e3000f06924000008b8004408de00000f780094
:103e40001e0078000000e0000b003a001e00780021
:103e500080407800301721000148780000172100c9
:103e600010407800804078000124a0000017210055
:103e70000148780018003700301721001040780002
:103e8000e64f40000a00360030172100a1cfb300f2
:103e90000148780000172100104078008040780029
:103ea0000124a10000172100014878000a00370012
:103eb0001e0078008040780030172100014878000b
:103ec0000017210010407800804078000124a100f4
:103ed00000172100014878000000eb009085880061
:103ee0000000eb00808588001430ef00c0c9b300eb
:103ef000eaf607003c003700c0c9b3005af70700d4
:103f000039003700908580004800dd00800078008f
:103f10008085800000017800f00f20000000610023
:103f200081007000f06924000008b8004408de0039
:103f3000000f78001e0078000000e0000b003a003f
:103f40001e0078008040780040172100014878006a
:103f50000017210010407800804078000134a00054
:103f6000001721000148780018003700a00f20003a
:103f70009e007800808f50000a0036004017210014
:103f8000a1cfb3000148780000172100104078004d
:103f9000804078000134a10000172100014878001a
:103fa0000a0037001e00780080407800401721008a
:103fb0000148780000172100104078008040780008
:103fc0000134a10000172100014878000000eb0037
:103fd000908588000000eb00808588001430ef0099
:103fe0001630ef00000000000080fa00000006001c
:103ff0000000fa00d00020001df60700f0a62800ff
:104000000df6070070d0bf000080fb00c2f507006e
:10401000e0a7280008f60700008380004880de0043
:10402000bdf5070001838000f00f200000806000d4
:10403000b9f507004183800050042000808f5000b4
:1040400013003a0040a82800fbf50700808280009a
:104050004800de00b0f5070081828000f00f2000ec
:1040600000806000acf50700d0a82800f2f507003a
:10407000a08280004800de00a7f50700a182800032
:10408000f00f200000806000a3f507001200370049
:1040900070a92800e8f50700908280004800de0043
:1040a0009df5070091828000f00f200000806000e5
:1040b00099f50700d0a82800dff50700b08280003e
:1040c0004800de0094f50700b1828000f00f200068
:1040d0000080600090f5070000aa2800d6f50700d0
:1040e000b0848000b4f5070000022000e0f507006e
:1040f000c0848000b0f5070000022000dcf5070056
:10410000d0848000acf5070000022000d8f507003d
:10411000e0848000a8f50700d0002000d4f5070057
:104120000080fa00000006000200fa00b180800062
:10413000010078008100e800b1808800ea0f50009b
:104140005d003200ea0f50000c003c00e40f50000c
:1041500019003200e40f500003003c000000e000b2
:104160001200320027013700e50f50001500320021
:10417000e90f50004d00320022013700ef0f5000d0
:104180008a003200ef0f500003003c00ee0f500099
:10419000830032001b013700f30f5000bd003200d6
:1041a000f40f5000be00320016013700f0c1b3001a
:1041b0003af6070013013700f0c1b300aaf6070072
:1041c00010013700908580004800dd0080007800f5
:1041d0008085800000017800f00f20000000610061
:1041e00081007000f06924000008b8004408de0077
:1041f000000f78001e0078000000e0000b003a007d
:104200001e007800804078001017210001487800d7
:104210000017210010407800804078000104a000c1
:10422000001721000148780018003700a00f200077
:104230009e007800808f50000a0036001017210081
:10424000a1cfb3000148780000172100104078008a
:10425000804078000104a100001721000148780087
:104260000a0037001e0078008040780010172100f7
:104270000148780000172100104078008040780045
:104280000104a10000172100014878000000eb00a4
:10429000908588000000eb00808588001430ef00d6
:1042a000e0c5b300fdf50700d6003700e0c5b30058
:1042b0006df60700d3003700908580004800dd00d0
:1042c000800078008085800000017800f00f2000d9
:1042d0000000610081007000f06924000008b8004f
:1042e0004408de00000f78001e0078000000e000a7
:1042f0000b003a001e007800804078002017210053
:1043000001487800001721001040780080407800b4
:104310000114a000001721000148780018003700a0
:10432000a00f20009e007800808f50000a00360009
:1043300020172100a1cfb300014878000017210009
:1043400010407800804078000114a100001721007f
:10435000014878000a0037001e007800804078008d
:104360002017210001487800001721001040780034
:10437000804078000114a100001721000148780056
:104380000000eb00908588000000eb00808588002d
:104390001430ef00d0cdb300c0f50700990037000e
:1043a000d0cdb30030f6070096003700908580002e
:1043b0004800dd00800078008085800000017800e2
:1043c000f00f20000000610081007000f0692400ff
:1043d0000008b8004408de00000f78001e007800d6
:1043e0000000e0000b003a001e00780080407800da
:1043f0003017210001487800001721001040780094
:10440000804078000124a0000017210001487800b6
:10441000180037003017210010407800e64f4000a8
:104420000a00360030172100a1cfb3000148780000
:104430000017210010407800804078000124a1007e
:1044400000172100014878000a0037001e0078009c
:1044500080407800301721000148780000172100c3
:1044600010407800804078000124a100001721004e
:10447000014878000000eb00908588000000eb0008
:10448000808588001430ef00c0c9b30083f50700b1
:104490005c003700c0c9b300f3f5070059003700ce
:1044a000908580004800dd008000780080858000d5
:1044b00000017800f00f2000000061008100700012
:1044c000f06924000008b8004408de00000f7800fe
:1044d0001e0078000000e0000b003a001e0078008b
:1044e0008040780040172100014878000017210023
:1044f00010407800804078000134a00000172100af
:104500000148780018003700a00f20009e007800b6
:10451000808f50000a00360040172100a1cfb30061
:104520000148780000172100104078008040780092
:104530000134a10000172100014878000a0037006b
:104540001e00780080407800401721000148780064
:104550000017210010407800804078000134a1004d
:1045600000172100014878000000eb0090858800ca
:104570000000eb00808588001430ef001000200060
:10458000b0808800800c2000308488000017210053
:10459000104078000080fb00008b8800101721007d
:1045a000104078000080fb00108b8800201721004d
:1045b000104078000080fb00208b8800301721001d
:1045c000104078000080fb00308b880040172100ed
:1045d000104078000080fb00408b88000000eb005a
:1045e000508b88000000eb00608b88000000eb001f
:1045f000708b8800bdf70700f0c1b30027f50700f6
:10460000000000000080fa00000006000000fa0030
:104610000000eb00008588000000eb00108588009a
:104620000000eb00208588000000eb00308588004a
:104630000000eb00408588000000eb0050858800fa
:104640000000eb00608588000000eb0070858800aa
:104650000000eb00808588000000eb00908588005a
:084660000080fa0000000600d2
:020000040000fa
:10466800761100000400000082000000ffffff0038
:10467800ff0000006011000016000000820000002a
:1046880002000100000d0000000000000000000012
:104698000000000000fafa00fafafa000000000030
:1046a8008e100000d2000000800000000010000002
:1046b80086000000800000000012000000020000d8
:1046c8008000000086100000080000008200000042
:1046d800810c3200007b14001f4200000000000023
:020000040000fa
:1048000000000000000000000000000000000000a8
:104810000000000000000000000000000000000098
:104820000000000000000000000000000000000088
:104830000000000000000000000000000000000078
:020000040000fa
:105000000000fe00621721000019780001097800f5
:10501000000006000000fe000000eb008000eb0036
:10502000f8ff07002e27ef00000006000000fe003a
:105030000000fe00801f7800811f780061172100aa
:105040000600fc00310078007039880011007800fb
:105050007039880029e7a800000000000000000067
:10506000cf0078004f007800000006000000fe002e
:10507000a2028000a10288009080ba001000ba004d
:10508000a2028800000006000000fe00a2028000cc
:10509000a10288001000ba00a202880000000600e9
:1050a0000000fe0029e7af00feff3700f23f2000be
:1050b000000161000a003a003200240042398800f1
:1050c00050398800613988001a2802000000000069
:1050d00029e7af00feff37001000200029a7af002e
:1050e00000002000000006000000fe0029e7af00dd
:1050f000feff37000000a700150037000010a700d2
:1051000013003700613988005039880010002400ee
:1051100040398800a0028000a10f2000a102880071
:10512000010020008208bb008398bb008408bb00fc
:105130008598bb001a2802000000000029e7af0094
:10514000feff3700a00288001000200029a7af0052
:1051500000002000000006000000fe0029e7af006c
:10516000feff37000000a700160037000010a70060
:10517000140037006139880050398800a10280008e
:105180001000240040398800a00f2000a0028800f1
:10519000000020000208bb00f20f20000298bb00b4
:1051a0000308bb000298bb001a28020000000000a0
:1051b00029e7af00feff3700a102880010002000a1
:1051c00029a7af0000002000000006000000fe003c
:1051d00029e7af00feff3700f30720008081610060
:1051e0000b003a0050398800613988002000240003
:1051f00040398800823988001a2802000000000027
:1052000029e7af00feff37001000200029a7af00fc
:1052100000002000000006000000fe0029e7af00ab
:10522000feff3700f30720008081610017003a007d
:105230005039880061398800100024004039880006
:10524000a00f2000a0028800000020000104200020
:10525000f40f20003208bb000498bb003208bb00ea
:105260000490bb001a2802000000000029e7af00ec
:10527000feff37002aa7ec002aa7ec002100b100ae
:10528000f4ff3a001000200029a7af000000200022
:1052900000000600f23f2000000061000000060050
:1052a00002c02f0000006100f2ff2f0081006100aa
:0452b00000000600f4
:020000040000fa
:020000040005f5
:04573000fbff00007b
:020000040000fa
:020000040005f5
:04573800bdff0000b1
:020000040000fa
:020000040005f5
:045740009fff0000c7
:020000040000fa
:020000040005f5
:04574800feff000060
:020000040000fa
:020000040005f5
:04575000feff000058
:020000040000fa
:020000040005f5
:04577800feff000030
:00000001FF
